{"project/contracts/Verifier.sol":{"Verifier":{"abi":[{"inputs":[{"internalType":"bytes32","name":"","type":"bytes32"}],"name":"documents","outputs":[{"internalType":"string","name":"","type":"string"}],"stateMutability":"view","type":"function"},{"inputs":[{"internalType":"bytes32","name":"hash","type":"bytes32"}],"name":"isRegistered","outputs":[{"internalType":"bool","name":"","type":"bool"}],"stateMutability":"view","type":"function"},{"inputs":[{"internalType":"bytes32","name":"hash","type":"bytes32"},{"internalType":"string","name":"uri","type":"string"}],"name":"register","outputs":[],"stateMutability":"nonpayable","type":"function"}],"evm":{"bytecode":{"linkReferences":{},"object":"608060405234801561000f575f80fd5b5061077c8061001d5f395ff3fe608060405234801561000f575f80fd5b506004361061003f575f3560e01c806327258b22146100435780632b2805db14610073578063cf2d31fb146100a3575b5f80fd5b61005d600480360381019061005891906101e6565b6100bf565b60405161006a919061022b565b60405180910390f35b61008d600480360381019061008891906101e6565b6100e6565b60405161009a91906102ce565b60405180910390f35b6100bd60048036038101906100b8919061041a565b610180565b005b5f805f808481526020019081526020015f2080546100dc906104a1565b9050119050919050565b5f602052805f5260405f205f915090508054610101906104a1565b80601f016020809104026020016040519081016040528092919081815260200182805461012d906104a1565b80156101785780601f1061014f57610100808354040283529160200191610178565b820191905f5260205f20905b81548152906001019060200180831161015b57829003601f168201915b505050505081565b805f808481526020019081526020015f20908161019d9190610677565b505050565b5f604051905090565b5f80fd5b5f80fd5b5f819050919050565b6101c5816101b3565b81146101cf575f80fd5b50565b5f813590506101e0816101bc565b92915050565b5f602082840312156101fb576101fa6101ab565b5b5f610208848285016101d2565b91505092915050565b5f8115159050919050565b61022581610211565b82525050565b5f60208201905061023e5f83018461021c565b92915050565b5f81519050919050565b5f82825260208201905092915050565b5f5b8381101561027b578082015181840152602081019050610260565b5f8484015250505050565b5f601f19601f8301169050919050565b5f6102a082610244565b6102aa818561024e565b93506102ba81856020860161025e565b6102c381610286565b840191505092915050565b5f6020820190508181035f8301526102e68184610296565b905092915050565b5f80fd5b5f80fd5b7f4e487b71000000000000000000000000000000000000000000000000000000005f52604160045260245ffd5b61032c82610286565b810181811067ffffffffffffffff8211171561034b5761034a6102f6565b5b80604052505050565b5f61035d6101a2565b90506103698282610323565b919050565b5f67ffffffffffffffff821115610388576103876102f6565b5b61039182610286565b9050602081019050919050565b828183375f83830152505050565b5f6103be6103b98461036e565b610354565b9050828152602081018484840111156103da576103d96102f2565b5b6103e584828561039e565b509392505050565b5f82601f830112610401576104006102ee565b5b81356104118482602086016103ac565b91505092915050565b5f80604083850312156104305761042f6101ab565b5b5f61043d858286016101d2565b925050602083013567ffffffffffffffff81111561045e5761045d6101af565b5b61046a858286016103ed565b9150509250929050565b7f4e487b71000000000000000000000000000000000000000000000000000000005f52602260045260245ffd5b5f60028204905060018216806104b857607f821691505b6020821081036104cb576104ca610474565b5b50919050565b5f819050815f5260205f209050919050565b5f6020601f8301049050919050565b5f82821b905092915050565b5f6008830261052d7fffffffffffffffffffffffffffffffffffffffffffffffffffffffffffffffff826104f2565b61053786836104f2565b95508019841693508086168417925050509392505050565b5f819050919050565b5f819050919050565b5f61057b6105766105718461054f565b610558565b61054f565b9050919050565b5f819050919050565b61059483610561565b6105a86105a082610582565b8484546104fe565b825550505050565b5f90565b6105bc6105b0565b6105c781848461058b565b505050565b5b818110156105ea576105df5f826105b4565b6001810190506105cd565b5050565b601f82111561062f57610600816104d1565b610609846104e3565b81016020851015610618578190505b61062c610624856104e3565b8301826105cc565b50505b505050565b5f82821c905092915050565b5f61064f5f1984600802610634565b1980831691505092915050565b5f6106678383610640565b9150826002028217905092915050565b61068082610244565b67ffffffffffffffff811115610699576106986102f6565b5b6106a382546104a1565b6106ae8282856105ee565b5f60209050601f8311600181146106df575f84156106cd578287015190505b6106d7858261065c565b86555061073e565b601f1984166106ed866104d1565b5f5b82811015610714578489015182556001820191506020850194506020810190506106ef565b86831015610731578489015161072d601f891682610640565b8355505b6001600288020188555050505b50505050505056fea2646970667358221220e6a8b496a2e258cfe595e93bab97cae6fb8e42332020c7ef35012425425616d764736f6c63430008140033","opcodes":"PUSH1 0x80 PUSH1 0x40 MSTORE CALLVALUE DUP1 ISZERO PUSH2 0xF JUMPI PUSH0 DUP1 REVERT JUMPDEST POP PUSH2 0x77C DUP1 PUSH2 0x1D PUSH0 CODECOPY PUSH0 RETURN INVALID PUSH1 0x80 PUSH1 0x40 MSTORE CALLVALUE DUP1 ISZERO PUSH2 0xF JUMPI PUSH0 DUP1 REVERT JUMPDEST POP PUSH1 0x4 CALLDATASIZE LT PUSH2 0x3F JUMPI PUSH0 CALLDATALOAD PUSH1 0xE0 SHR DUP1 PUSH4 0x27258B22 EQ PUSH2 0x43 JUMPI DUP1 PUSH4 0x2B2805DB EQ PUSH2 0x73 JUMPI DUP1 PUSH4 0xCF2D31FB EQ PUSH2 0xA3 JUMPI JUMPDEST PUSH0 DUP1 REVERT JUMPDEST PUSH2 0x5D PUSH1 0x4 DUP1 CALLDATASIZE SUB DUP2 ADD SWAP1 PUSH2 0x58 SWAP2 SWAP1 PUSH2 0x1E6 JUMP JUMPDEST PUSH2 0xBF JUMP JUMPDEST PUSH1 0x40 MLOAD PUSH2 0x6A SWAP2 SWAP1 PUSH2 0x22B JUMP JUMPDEST PUSH1 0x40 MLOAD DUP1 SWAP2 SUB SWAP1 RETURN JUMPDEST PUSH2 0x8D PUSH1 0x4 DUP1 CALLDATASIZE SUB DUP2 ADD SWAP1 PUSH2 0x88 SWAP2 SWAP1 PUSH2 0x1E6 JUMP JUMPDEST PUSH2 0xE6 JUMP JUMPDEST PUSH1 0x40 MLOAD PUSH2 0x9A SWAP2 SWAP1 PUSH2 0x2CE JUMP JUMPDEST PUSH1 0x40 MLOAD DUP1 SWAP2 SUB SWAP1 RETURN JUMPDEST PUSH2 0xBD PUSH1 0x4 DUP1 CALLDATASIZE SUB DUP2 ADD SWAP1 PUSH2 0xB8 SWAP2 SWAP1 PUSH2 0x41A JUMP JUMPDEST PUSH2 0x180 JUMP JUMPDEST STOP JUMPDEST PUSH0 DUP1 PUSH0 DUP1 DUP5 DUP2 MSTORE PUSH1 0x20 ADD SWAP1 DUP2 MSTORE PUSH1 0x20 ADD PUSH0 KECCAK256 DUP1 SLOAD PUSH2 0xDC SWAP1 PUSH2 0x4A1 JUMP JUMPDEST SWAP1 POP GT SWAP1 POP SWAP2 SWAP1 POP JUMP JUMPDEST PUSH0 PUSH1 0x20 MSTORE DUP1 PUSH0 MSTORE PUSH1 0x40 PUSH0 KECCAK256 PUSH0 SWAP2 POP SWAP1 POP DUP1 SLOAD PUSH2 0x101 SWAP1 PUSH2 0x4A1 JUMP JUMPDEST DUP1 PUSH1 0x1F ADD PUSH1 0x20 DUP1 SWAP2 DIV MUL PUSH1 0x20 ADD PUSH1 0x40 MLOAD SWAP1 DUP2 ADD PUSH1 0x40 MSTORE DUP1 SWAP3 SWAP2 SWAP1 DUP2 DUP2 MSTORE PUSH1 0x20 ADD DUP3 DUP1 SLOAD PUSH2 0x12D SWAP1 PUSH2 0x4A1 JUMP JUMPDEST DUP1 ISZERO PUSH2 0x178 JUMPI DUP1 PUSH1 0x1F LT PUSH2 0x14F JUMPI PUSH2 0x100 DUP1 DUP4 SLOAD DIV MUL DUP4 MSTORE SWAP2 PUSH1 0x20 ADD SWAP2 PUSH2 0x178 JUMP JUMPDEST DUP3 ADD SWAP2 SWAP1 PUSH0 MSTORE PUSH1 0x20 PUSH0 KECCAK256 SWAP1 JUMPDEST DUP2 SLOAD DUP2 MSTORE SWAP1 PUSH1 0x1 ADD SWAP1 PUSH1 0x20 ADD DUP1 DUP4 GT PUSH2 0x15B JUMPI DUP3 SWAP1 SUB PUSH1 0x1F AND DUP3 ADD SWAP2 JUMPDEST POP POP POP POP POP DUP2 JUMP JUMPDEST DUP1 PUSH0 DUP1 DUP5 DUP2 MSTORE PUSH1 0x20 ADD SWAP1 DUP2 MSTORE PUSH1 0x20 ADD PUSH0 KECCAK256 SWAP1 DUP2 PUSH2 0x19D SWAP2 SWAP1 PUSH2 0x677 JUMP JUMPDEST POP POP POP JUMP JUMPDEST PUSH0 PUSH1 0x40 MLOAD SWAP1 POP SWAP1 JUMP JUMPDEST PUSH0 DUP1 REVERT JUMPDEST PUSH0 DUP1 REVERT JUMPDEST PUSH0 DUP2 SWAP1 POP SWAP2 SWAP1 POP JUMP JUMPDEST PUSH2 0x1C5 DUP2 PUSH2 0x1B3 JUMP JUMPDEST DUP2 EQ PUSH2 0x1CF JUMPI PUSH0 DUP1 REVERT JUMPDEST POP JUMP JUMPDEST PUSH0 DUP2 CALLDATALOAD SWAP1 POP PUSH2 0x1E0 DUP2 PUSH2 0x1BC JUMP JUMPDEST SWAP3 SWAP2 POP POP JUMP JUMPDEST PUSH0 PUSH1 0x20 DUP3 DUP5 SUB SLT ISZERO PUSH2 0x1FB JUMPI PUSH2 0x1FA PUSH2 0x1AB JUMP JUMPDEST JUMPDEST PUSH0 PUSH2 0x208 DUP5 DUP3 DUP6 ADD PUSH2 0x1D2 JUMP JUMPDEST SWAP2 POP POP SWAP3 SWAP2 POP POP JUMP JUMPDEST PUSH0 DUP2 ISZERO ISZERO SWAP1 POP SWAP2 SWAP1 POP JUMP JUMPDEST PUSH2 0x225 DUP2 PUSH2 0x211 JUMP JUMPDEST DUP3 MSTORE POP POP JUMP JUMPDEST PUSH0 PUSH1 0x20 DUP3 ADD SWAP1 POP PUSH2 0x23E PUSH0 DUP4 ADD DUP5 PUSH2 0x21C JUMP JUMPDEST SWAP3 SWAP2 POP POP JUMP JUMPDEST PUSH0 DUP2 MLOAD SWAP1 POP SWAP2 SWAP1 POP JUMP JUMPDEST PUSH0 DUP3 DUP3 MSTORE PUSH1 0x20 DUP3 ADD SWAP1 POP SWAP3 SWAP2 POP POP JUMP JUMPDEST PUSH0 JUMPDEST DUP4 DUP2 LT ISZERO PUSH2 0x27B JUMPI DUP1 DUP3 ADD MLOAD DUP2 DUP5 ADD MSTORE PUSH1 0x20 DUP2 ADD SWAP1 POP PUSH2 0x260 JUMP JUMPDEST PUSH0 DUP5 DUP5 ADD MSTORE POP POP POP POP JUMP JUMPDEST PUSH0 PUSH1 0x1F NOT PUSH1 0x1F DUP4 ADD AND SWAP1 POP SWAP2 SWAP1 POP JUMP JUMPDEST PUSH0 PUSH2 0x2A0 DUP3 PUSH2 0x244 JUMP JUMPDEST PUSH2 0x2AA DUP2 DUP6 PUSH2 0x24E JUMP JUMPDEST SWAP4 POP PUSH2 0x2BA DUP2 DUP6 PUSH1 0x20 DUP7 ADD PUSH2 0x25E JUMP JUMPDEST PUSH2 0x2C3 DUP2 PUSH2 0x286 JUMP JUMPDEST DUP5 ADD SWAP2 POP POP SWAP3 SWAP2 POP POP JUMP JUMPDEST PUSH0 PUSH1 0x20 DUP3 ADD SWAP1 POP DUP2 DUP2 SUB PUSH0 DUP4 ADD MSTORE PUSH2 0x2E6 DUP2 DUP5 PUSH2 0x296 JUMP JUMPDEST SWAP1 POP SWAP3 SWAP2 POP POP JUMP JUMPDEST PUSH0 DUP1 REVERT JUMPDEST PUSH0 DUP1 REVERT JUMPDEST PUSH32 0x4E487B7100000000000000000000000000000000000000000000000000000000 PUSH0 MSTORE PUSH1 0x41 PUSH1 0x4 MSTORE PUSH1 0x24 PUSH0 REVERT JUMPDEST PUSH2 0x32C DUP3 PUSH2 0x286 JUMP JUMPDEST DUP2 ADD DUP2 DUP2 LT PUSH8 0xFFFFFFFFFFFFFFFF DUP3 GT OR ISZERO PUSH2 0x34B JUMPI PUSH2 0x34A PUSH2 0x2F6 JUMP JUMPDEST JUMPDEST DUP1 PUSH1 0x40 MSTORE POP POP POP JUMP JUMPDEST PUSH0 PUSH2 0x35D PUSH2 0x1A2 JUMP JUMPDEST SWAP1 POP PUSH2 0x369 DUP3 DUP3 PUSH2 0x323 JUMP JUMPDEST SWAP2 SWAP1 POP JUMP JUMPDEST PUSH0 PUSH8 0xFFFFFFFFFFFFFFFF DUP3 GT ISZERO PUSH2 0x388 JUMPI PUSH2 0x387 PUSH2 0x2F6 JUMP JUMPDEST JUMPDEST PUSH2 0x391 DUP3 PUSH2 0x286 JUMP JUMPDEST SWAP1 POP PUSH1 0x20 DUP2 ADD SWAP1 POP SWAP2 SWAP1 POP JUMP JUMPDEST DUP3 DUP2 DUP4 CALLDATACOPY PUSH0 DUP4 DUP4 ADD MSTORE POP POP POP JUMP JUMPDEST PUSH0 PUSH2 0x3BE PUSH2 0x3B9 DUP5 PUSH2 0x36E JUMP JUMPDEST PUSH2 0x354 JUMP JUMPDEST SWAP1 POP DUP3 DUP2 MSTORE PUSH1 0x20 DUP2 ADD DUP5 DUP5 DUP5 ADD GT ISZERO PUSH2 0x3DA JUMPI PUSH2 0x3D9 PUSH2 0x2F2 JUMP JUMPDEST JUMPDEST PUSH2 0x3E5 DUP5 DUP3 DUP6 PUSH2 0x39E JUMP JUMPDEST POP SWAP4 SWAP3 POP POP POP JUMP JUMPDEST PUSH0 DUP3 PUSH1 0x1F DUP4 ADD SLT PUSH2 0x401 JUMPI PUSH2 0x400 PUSH2 0x2EE JUMP JUMPDEST JUMPDEST DUP2 CALLDATALOAD PUSH2 0x411 DUP5 DUP3 PUSH1 0x20 DUP7 ADD PUSH2 0x3AC JUMP JUMPDEST SWAP2 POP POP SWAP3 SWAP2 POP POP JUMP JUMPDEST PUSH0 DUP1 PUSH1 0x40 DUP4 DUP6 SUB SLT ISZERO PUSH2 0x430 JUMPI PUSH2 0x42F PUSH2 0x1AB JUMP JUMPDEST JUMPDEST PUSH0 PUSH2 0x43D DUP6 DUP3 DUP7 ADD PUSH2 0x1D2 JUMP JUMPDEST SWAP3 POP POP PUSH1 0x20 DUP4 ADD CALLDATALOAD PUSH8 0xFFFFFFFFFFFFFFFF DUP2 GT ISZERO PUSH2 0x45E JUMPI PUSH2 0x45D PUSH2 0x1AF JUMP JUMPDEST JUMPDEST PUSH2 0x46A DUP6 DUP3 DUP7 ADD PUSH2 0x3ED JUMP JUMPDEST SWAP2 POP POP SWAP3 POP SWAP3 SWAP1 POP JUMP JUMPDEST PUSH32 0x4E487B7100000000000000000000000000000000000000000000000000000000 PUSH0 MSTORE PUSH1 0x22 PUSH1 0x4 MSTORE PUSH1 0x24 PUSH0 REVERT JUMPDEST PUSH0 PUSH1 0x2 DUP3 DIV SWAP1 POP PUSH1 0x1 DUP3 AND DUP1 PUSH2 0x4B8 JUMPI PUSH1 0x7F DUP3 AND SWAP2 POP JUMPDEST PUSH1 0x20 DUP3 LT DUP2 SUB PUSH2 0x4CB JUMPI PUSH2 0x4CA PUSH2 0x474 JUMP JUMPDEST JUMPDEST POP SWAP2 SWAP1 POP JUMP JUMPDEST PUSH0 DUP2 SWAP1 POP DUP2 PUSH0 MSTORE PUSH1 0x20 PUSH0 KECCAK256 SWAP1 POP SWAP2 SWAP1 POP JUMP JUMPDEST PUSH0 PUSH1 0x20 PUSH1 0x1F DUP4 ADD DIV SWAP1 POP SWAP2 SWAP1 POP JUMP JUMPDEST PUSH0 DUP3 DUP3 SHL SWAP1 POP SWAP3 SWAP2 POP POP JUMP JUMPDEST PUSH0 PUSH1 0x8 DUP4 MUL PUSH2 0x52D PUSH32 0xFFFFFFFFFFFFFFFFFFFFFFFFFFFFFFFFFFFFFFFFFFFFFFFFFFFFFFFFFFFFFFFF DUP3 PUSH2 0x4F2 JUMP JUMPDEST PUSH2 0x537 DUP7 DUP4 PUSH2 0x4F2 JUMP JUMPDEST SWAP6 POP DUP1 NOT DUP5 AND SWAP4 POP DUP1 DUP7 AND DUP5 OR SWAP3 POP POP POP SWAP4 SWAP3 POP POP POP JUMP JUMPDEST PUSH0 DUP2 SWAP1 POP SWAP2 SWAP1 POP JUMP JUMPDEST PUSH0 DUP2 SWAP1 POP SWAP2 SWAP1 POP JUMP JUMPDEST PUSH0 PUSH2 0x57B PUSH2 0x576 PUSH2 0x571 DUP5 PUSH2 0x54F JUMP JUMPDEST PUSH2 0x558 JUMP JUMPDEST PUSH2 0x54F JUMP JUMPDEST SWAP1 POP SWAP2 SWAP1 POP JUMP JUMPDEST PUSH0 DUP2 SWAP1 POP SWAP2 SWAP1 POP JUMP JUMPDEST PUSH2 0x594 DUP4 PUSH2 0x561 JUMP JUMPDEST PUSH2 0x5A8 PUSH2 0x5A0 DUP3 PUSH2 0x582 JUMP JUMPDEST DUP5 DUP5 SLOAD PUSH2 0x4FE JUMP JUMPDEST DUP3 SSTORE POP POP POP POP JUMP JUMPDEST PUSH0 SWAP1 JUMP JUMPDEST PUSH2 0x5BC PUSH2 0x5B0 JUMP JUMPDEST PUSH2 0x5C7 DUP2 DUP5 DUP5 PUSH2 0x58B JUMP JUMPDEST POP POP POP JUMP JUMPDEST JUMPDEST DUP2 DUP2 LT ISZERO PUSH2 0x5EA JUMPI PUSH2 0x5DF PUSH0 DUP3 PUSH2 0x5B4 JUMP JUMPDEST PUSH1 0x1 DUP2 ADD SWAP1 POP PUSH2 0x5CD JUMP JUMPDEST POP POP JUMP JUMPDEST PUSH1 0x1F DUP3 GT ISZERO PUSH2 0x62F JUMPI PUSH2 0x600 DUP2 PUSH2 0x4D1 JUMP JUMPDEST PUSH2 0x609 DUP5 PUSH2 0x4E3 JUMP JUMPDEST DUP2 ADD PUSH1 0x20 DUP6 LT ISZERO PUSH2 0x618 JUMPI DUP2 SWAP1 POP JUMPDEST PUSH2 0x62C PUSH2 0x624 DUP6 PUSH2 0x4E3 JUMP JUMPDEST DUP4 ADD DUP3 PUSH2 0x5CC JUMP JUMPDEST POP POP JUMPDEST POP POP POP JUMP JUMPDEST PUSH0 DUP3 DUP3 SHR SWAP1 POP SWAP3 SWAP2 POP POP JUMP JUMPDEST PUSH0 PUSH2 0x64F PUSH0 NOT DUP5 PUSH1 0x8 MUL PUSH2 0x634 JUMP JUMPDEST NOT DUP1 DUP4 AND SWAP2 POP POP SWAP3 SWAP2 POP POP JUMP JUMPDEST PUSH0 PUSH2 0x667 DUP4 DUP4 PUSH2 0x640 JUMP JUMPDEST SWAP2 POP DUP3 PUSH1 0x2 MUL DUP3 OR SWAP1 POP SWAP3 SWAP2 POP POP JUMP JUMPDEST PUSH2 0x680 DUP3 PUSH2 0x244 JUMP JUMPDEST PUSH8 0xFFFFFFFFFFFFFFFF DUP2 GT ISZERO PUSH2 0x699 JUMPI PUSH2 0x698 PUSH2 0x2F6 JUMP JUMPDEST JUMPDEST PUSH2 0x6A3 DUP3 SLOAD PUSH2 0x4A1 JUMP JUMPDEST PUSH2 0x6AE DUP3 DUP3 DUP6 PUSH2 0x5EE JUMP JUMPDEST PUSH0 PUSH1 0x20 SWAP1 POP PUSH1 0x1F DUP4 GT PUSH1 0x1 DUP2 EQ PUSH2 0x6DF JUMPI PUSH0 DUP5 ISZERO PUSH2 0x6CD JUMPI DUP3 DUP8 ADD MLOAD SWAP1 POP JUMPDEST PUSH2 0x6D7 DUP6 DUP3 PUSH2 0x65C JUMP JUMPDEST DUP7 SSTORE POP PUSH2 0x73E JUMP JUMPDEST PUSH1 0x1F NOT DUP5 AND PUSH2 0x6ED DUP7 PUSH2 0x4D1 JUMP JUMPDEST PUSH0 JUMPDEST DUP3 DUP2 LT ISZERO PUSH2 0x714 JUMPI DUP5 DUP10 ADD MLOAD DUP3 SSTORE PUSH1 0x1 DUP3 ADD SWAP2 POP PUSH1 0x20 DUP6 ADD SWAP5 POP PUSH1 0x20 DUP2 ADD SWAP1 POP PUSH2 0x6EF JUMP JUMPDEST DUP7 DUP4 LT ISZERO PUSH2 0x731 JUMPI DUP5 DUP10 ADD MLOAD PUSH2 0x72D PUSH1 0x1F DUP10 AND DUP3 PUSH2 0x640 JUMP JUMPDEST DUP4 SSTORE POP JUMPDEST PUSH1 0x1 PUSH1 0x2 DUP9 MUL ADD DUP9 SSTORE POP POP POP JUMPDEST POP POP POP POP POP POP JUMP INVALID LOG2 PUSH5 0x6970667358 0x22 SLT KECCAK256 0xE6 0xA8 0xB4 SWAP7 LOG2 0xE2 PC 0xCF 0xE5 SWAP6 0xE9 EXTCODESIZE 0xAB SWAP8 0xCA 0xE6 0xFB DUP15 TIMESTAMP CALLER KECCAK256 KECCAK256 0xC7 0xEF CALLDATALOAD ADD 0x24 0x25 TIMESTAMP JUMP AND 0xD7 PUSH5 0x736F6C6343 STOP ADDMOD EQ STOP CALLER "},"methodIdentifiers":{"documents(bytes32)":"2b2805db","isRegistered(bytes32)":"27258b22","register(bytes32,string)":"cf2d31fb"}}}}}