{
  "_format": "hh-sol-artifact-1",
  "contractName": "Verifier",
  "sourceName": "contracts/Verifier.sol",
  "abi": [
    {
      "anonymous": false,
      "inputs": [
        {
          "indexed": true,
          "internalType": "address",
          "name": "user",
          "type": "address"
        },
        {
          "indexed": false,
          "internalType": "bytes32",
          "name": "hash",
          "type": "bytes32"
        },
        {
          "indexed": false,
          "internalType": "string",
          "name": "uri",
          "type": "string"
        }
      ],
      "name": "Registered",
      "type": "event"
    },
    {
      "inputs": [
        {
          "internalType": "bytes32",
          "name": "",
          "type": "bytes32"
        }
      ],
      "name": "docs",
      "outputs": [
        {
          "internalType": "string",
          "name": "uri",
          "type": "string"
        },
        {
          "internalType": "bool",
          "name": "exists",
          "type": "bool"
        }
      ],
      "stateMutability": "view",
      "type": "function"
    },
    {
      "inputs": [
        {
          "internalType": "address",
          "name": "user",
          "type": "address"
        }
      ],
      "name": "getUserDocs",
      "outputs": [
        {
          "internalType": "bytes32[]",
          "name": "",
          "type": "bytes32[]"
        }
      ],
      "stateMutability": "view",
      "type": "function"
    },
    {
      "inputs": [
        {
          "internalType": "bytes32",
          "name": "hash",
          "type": "bytes32"
        }
      ],
      "name": "isRegistered",
      "outputs": [
        {
          "internalType": "bool",
          "name": "",
          "type": "bool"
        }
      ],
      "stateMutability": "view",
      "type": "function"
    },
    {
      "inputs": [
        {
          "internalType": "bytes32",
          "name": "hash",
          "type": "bytes32"
        },
        {
          "internalType": "string",
          "name": "uri",
          "type": "string"
        }
      ],
      "name": "register",
      "outputs": [],
      "stateMutability": "nonpayable",
      "type": "function"
    }
  ],
  "bytecode": "0x608060405234801561001057600080fd5b50610664806100206000396000f3fe608060405234801561001057600080fd5b506004361061004c5760003560e01c806327258b22146100515780634af1f98b1461008c5780636fca1744146100ac578063cf2d31fb146100cd575b600080fd5b61007761005f3660046102fa565b60009081526020819052604090206001015460ff1690565b60405190151581526020015b60405180910390f35b61009f61009a366004610313565b6100e2565b6040516100839190610343565b6100bf6100ba3660046102fa565b61014e565b6040516100839291906103cd565b6100e06100db366004610407565b6101f5565b005b6001600160a01b03811660009081526001602090815260409182902080548351818402810184019094528084526060939283018282801561014257602002820191906000526020600020905b81548152602001906001019080831161012e575b50505050509050919050565b600060208190529081526040902080548190610169906104c2565b80601f0160208091040260200160405190810160405280929190818152602001828054610195906104c2565b80156101e25780601f106101b7576101008083540402835291602001916101e2565b820191906000526020600020905b8154815290600101906020018083116101c557829003601f168201915b5050506001909301549192505060ff1682565b60008281526020819052604090206001015460ff16156102505760405162461bcd60e51b8152602060048201526012602482015271105b1c9958591e481c9959da5cdd195c995960721b604482015260640160405180910390fd5b60408051808201825282815260016020808301919091526000858152908190529190912081518190610282908261054d565b506020918201516001918201805460ff1916911515919091179055336000818152828452604080822080549485018155825293902090910184905590517fb5e40ee7342dbfc9a69f18dcafa0ce9b1cf82362987b8552d82ef3b736890253906102ee908590859061060d565b60405180910390a25050565b60006020828403121561030c57600080fd5b5035919050565b60006020828403121561032557600080fd5b81356001600160a01b038116811461033c57600080fd5b9392505050565b6020808252825182820181905260009190848201906040850190845b8181101561037b5783518352928401929184019160010161035f565b50909695505050505050565b6000815180845260005b818110156103ad57602081850181015186830182015201610391565b506000602082860101526020601f19601f83011685010191505092915050565b6040815260006103e06040830185610387565b905082151560208301529392505050565b634e487b7160e01b600052604160045260246000fd5b6000806040838503121561041a57600080fd5b82359150602083013567ffffffffffffffff8082111561043957600080fd5b818501915085601f83011261044d57600080fd5b81358181111561045f5761045f6103f1565b604051601f8201601f19908116603f01168101908382118183101715610487576104876103f1565b816040528281528860208487010111156104a057600080fd5b8260208601602083013760006020848301015280955050505050509250929050565b600181811c908216806104d657607f821691505b6020821081036104f657634e487b7160e01b600052602260045260246000fd5b50919050565b601f821115610548576000816000526020600020601f850160051c810160208610156105255750805b601f850160051c820191505b8181101561054457828155600101610531565b5050505b505050565b815167ffffffffffffffff811115610567576105676103f1565b61057b8161057584546104c2565b846104fc565b602080601f8311600181146105b057600084156105985750858301515b600019600386901b1c1916600185901b178555610544565b600085815260208120601f198616915b828110156105df578886015182559484019460019091019084016105c0565b50858210156105fd5787850151600019600388901b60f8161c191681555b5050505050600190811b01905550565b8281526040602082015260006106266040830184610387565b94935050505056fea264697066735822122022f3bb4628c82609b880aac9f27cfc3b661903013336f9394e688f60f0bebae564736f6c63430008180033",
  "linkReferences": {},
  "deployedLinkReferences": {}
}