{
  "_format": "hh3-artifact-1",
  "contractName": "Verifier",
  "sourceName": "contracts/Verifier.sol",
  "abi": [
    {
      "inputs": [
        {
          "internalType": "bytes32",
          "name": "",
          "type": "bytes32"
        }
      ],
      "name": "documents",
      "outputs": [
        {
          "internalType": "string",
          "name": "",
          "type": "string"
        }
      ],
      "stateMutability": "view",
      "type": "function"
    },
    {
      "inputs": [
        {
          "internalType": "bytes32",
          "name": "hash",
          "type": "bytes32"
        }
      ],
      "name": "isRegistered",
      "outputs": [
        {
          "internalType": "bool",
          "name": "",
          "type": "bool"
        }
      ],
      "stateMutability": "view",
      "type": "function"
    },
    {
      "inputs": [
        {
          "internalType": "bytes32",
          "name": "hash",
          "type": "bytes32"
        },
        {
          "internalType": "string",
          "name": "uri",
          "type": "string"
        }
      ],
      "name": "register",
      "outputs": [],
      "stateMutability": "nonpayable",
      "type": "function"
    }
  ],
  "bytecode": "0x608060405234801561000f575f80fd5b5061041d8061001d5f395ff3fe608060405234801561000f575f80fd5b506004361061003f575f3560e01c806327258b22146100435780632b2805db1461006b578063cf2d31fb1461008b575b5f80fd5b610056610051366004610178565b6100a0565b60405190151581526020015b60405180910390f35b61007e610079366004610178565b6100c5565b604051610062919061018f565b61009e6100993660046101ef565b61015c565b005b5f81815260208190526040812080548291906100bb906102a4565b9050119050919050565b5f60208190529081526040902080546100dd906102a4565b80601f0160208091040260200160405190810160405280929190818152602001828054610109906102a4565b80156101545780601f1061012b57610100808354040283529160200191610154565b820191905f5260205f20905b81548152906001019060200180831161013757829003601f168201915b505050505081565b5f8281526020819052604090206101738282610327565b505050565b5f60208284031215610188575f80fd5b5035919050565b5f602080835283518060208501525f5b818110156101bb5785810183015185820160400152820161019f565b505f604082860101526040601f19601f8301168501019250505092915050565b634e487b7160e01b5f52604160045260245ffd5b5f8060408385031215610200575f80fd5b82359150602083013567ffffffffffffffff8082111561021e575f80fd5b818501915085601f830112610231575f80fd5b813581811115610243576102436101db565b604051601f8201601f19908116603f0116810190838211818310171561026b5761026b6101db565b81604052828152886020848701011115610283575f80fd5b826020860160208301375f6020848301015280955050505050509250929050565b600181811c908216806102b857607f821691505b6020821081036102d657634e487b7160e01b5f52602260045260245ffd5b50919050565b601f82111561017357805f5260205f20601f840160051c810160208510156103015750805b601f840160051c820191505b81811015610320575f815560010161030d565b5050505050565b815167ffffffffffffffff811115610341576103416101db565b6103558161034f84546102a4565b846102dc565b602080601f831160018114610388575f84156103715750858301515b5f19600386901b1c1916600185901b1785556103df565b5f85815260208120601f198616915b828110156103b657888601518255948401946001909101908401610397565b50858210156103d357878501515f19600388901b60f8161c191681555b505060018460011b0185555b50505050505056fea2646970667358221220266ccc429c234b5e5bc449e7faed83c6176730675a986f4f50e46b53143d54f264736f6c63430008180033",
  "linkReferences": {},
  "deployedLinkReferences": {},
  "immutableReferences": {},
  "inputSourceName": "project/contracts/Verifier.sol",
  "buildInfoId": "solc-0_8_24-1e749f26531040f8c1c1a8bebd48036f8dadbdd5"
}